{"contracts/PatientRecords.sol":{"PatientRecords":{"abi":[{"anonymous":false,"inputs":[{"indexed":true,"internalType":"string","name":"patientId","type":"string"},{"indexed":false,"internalType":"string","name":"pointer","type":"string"},{"indexed":false,"internalType":"uint256","name":"timestamp","type":"uint256"}],"name":"RecordStored","type":"event"},{"inputs":[{"internalType":"string","name":"patientId","type":"string"},{"internalType":"uint256","name":"index","type":"uint256"}],"name":"getRecord","outputs":[{"internalType":"string","name":"pointer","type":"string"},{"internalType":"uint256","name":"ts","type":"uint256"}],"stateMutability":"view","type":"function"},{"inputs":[{"internalType":"string","name":"patientId","type":"string"}],"name":"getRecordCount","outputs":[{"internalType":"uint256","name":"","type":"uint256"}],"stateMutability":"view","type":"function"},{"inputs":[{"internalType":"string","name":"patientId","type":"string"},{"internalType":"string","name":"pointer","type":"string"}],"name":"storeRecord","outputs":[],"stateMutability":"nonpayable","type":"function"}],"evm":{"bytecode":{"linkReferences":{},"object":"6080604052348015600f57600080fd5b506109dc8061001f6000396000f3fe608060405234801561001057600080fd5b50600436106100415760003560e01c80636386953f14610046578063bc60f6a114610062578063c3cef20a14610093575b600080fd5b610060600480360381019061005b9190610365565b6100c3565b005b61007c6004803603810190610077919061041c565b6101e0565b60405161008a92919061051b565b60405180910390f35b6100ad60048036038101906100a8919061054b565b6102c9565b6040516100ba9190610598565b60405180910390f35b600084846040516100d59291906105f2565b9081526020016040518091039020604051806040016040528084848080601f016020809104026020016040519081016040528093929190818152602001838380828437600081840152601f19601f820116905080830192505050505050508152602001428152509080600181540180825580915050600190039060005260206000209060020201600090919091909150600082015181600001908161017a9190610846565b5060208201518160010155505083836040516101979291906105f2565b60405180910390207f9f7f225cca3906d421320860b5afbc9f44915713bf22cfa5a265d01e195b61a18383426040516101d293929190610945565b60405180910390a250505050565b6060600080600086866040516101f79291906105f2565b9081526020016040518091039020848154811061021757610216610977565b5b9060005260206000209060020201905080600001816001015481805461023c90610669565b80601f016020809104026020016040519081016040528092919081815260200182805461026890610669565b80156102b55780601f1061028a576101008083540402835291602001916102b5565b820191906000526020600020905b81548152906001019060200180831161029857829003601f168201915b505050505091509250925050935093915050565b60008083836040516102dc9291906105f2565b908152602001604051809103902080549050905092915050565b600080fd5b600080fd5b600080fd5b600080fd5b600080fd5b60008083601f84011261032557610324610300565b5b8235905067ffffffffffffffff81111561034257610341610305565b5b60208301915083600182028301111561035e5761035d61030a565b5b9250929050565b6000806000806040858703121561037f5761037e6102f6565b5b600085013567ffffffffffffffff81111561039d5761039c6102fb565b5b6103a98782880161030f565b9450945050602085013567ffffffffffffffff8111156103cc576103cb6102fb565b5b6103d88782880161030f565b925092505092959194509250565b6000819050919050565b6103f9816103e6565b811461040457600080fd5b50565b600081359050610416816103f0565b92915050565b600080600060408486031215610435576104346102f6565b5b600084013567ffffffffffffffff811115610453576104526102fb565b5b61045f8682870161030f565b9350935050602061047286828701610407565b9150509250925092565b600081519050919050565b600082825260208201905092915050565b60005b838110156104b657808201518184015260208101905061049b565b60008484015250505050565b6000601f19601f8301169050919050565b60006104de8261047c565b6104e88185610487565b93506104f8818560208601610498565b610501816104c2565b840191505092915050565b610515816103e6565b82525050565b6000604082019050818103600083015261053581856104d3565b9050610544602083018461050c565b9392505050565b60008060208385031215610562576105616102f6565b5b600083013567ffffffffffffffff8111156105805761057f6102fb565b5b61058c8582860161030f565b92509250509250929050565b60006020820190506105ad600083018461050c565b92915050565b600081905092915050565b82818337600083830152505050565b60006105d983856105b3565b93506105e68385846105be565b82840190509392505050565b60006105ff8284866105cd565b91508190509392505050565b7f4e487b7100000000000000000000000000000000000000000000000000000000600052604160045260246000fd5b7f4e487b7100000000000000000000000000000000000000000000000000000000600052602260045260246000fd5b6000600282049050600182168061068157607f821691505b6020821081036106945761069361063a565b5b50919050565b60008190508160005260206000209050919050565b60006020601f8301049050919050565b600082821b905092915050565b6000600883026106fc7fffffffffffffffffffffffffffffffffffffffffffffffffffffffffffffffff826106bf565b61070686836106bf565b95508019841693508086168417925050509392505050565b6000819050919050565b600061074361073e610739846103e6565b61071e565b6103e6565b9050919050565b6000819050919050565b61075d83610728565b6107716107698261074a565b8484546106cc565b825550505050565b600090565b610786610779565b610791818484610754565b505050565b5b818110156107b5576107aa60008261077e565b600181019050610797565b5050565b601f8211156107fa576107cb8161069a565b6107d4846106af565b810160208510156107e3578190505b6107f76107ef856106af565b830182610796565b50505b505050565b600082821c905092915050565b600061081d600019846008026107ff565b1980831691505092915050565b6000610836838361080c565b9150826002028217905092915050565b61084f8261047c565b67ffffffffffffffff8111156108685761086761060b565b5b6108728254610669565b61087d8282856107b9565b600060209050601f8311600181146108b0576000841561089e578287015190505b6108a8858261082a565b865550610910565b601f1984166108be8661069a565b60005b828110156108e6578489015182556001820191506020850194506020810190506108c1565b8683101561090357848901516108ff601f89168261080c565b8355505b6001600288020188555050505b505050505050565b60006109248385610487565b93506109318385846105be565b61093a836104c2565b840190509392505050565b60006040820190508181036000830152610960818587610918565b905061096f602083018461050c565b949350505050565b7f4e487b7100000000000000000000000000000000000000000000000000000000600052603260045260246000fdfea2646970667358221220f4cdf22f8b636efafe52da49bf5e235cd8cad0fffcfda83404d2b9dcafcfb67a64736f6c634300081c0033","opcodes":"PUSH1 0x80 PUSH1 0x40 MSTORE CALLVALUE DUP1 ISZERO PUSH1 0xF JUMPI PUSH1 0x0 DUP1 REVERT JUMPDEST POP PUSH2 0x9DC DUP1 PUSH2 0x1F PUSH1 0x0 CODECOPY PUSH1 0x0 RETURN INVALID PUSH1 0x80 PUSH1 0x40 MSTORE CALLVALUE DUP1 ISZERO PUSH2 0x10 JUMPI PUSH1 0x0 DUP1 REVERT JUMPDEST POP PUSH1 0x4 CALLDATASIZE LT PUSH2 0x41 JUMPI PUSH1 0x0 CALLDATALOAD PUSH1 0xE0 SHR DUP1 PUSH4 0x6386953F EQ PUSH2 0x46 JUMPI DUP1 PUSH4 0xBC60F6A1 EQ PUSH2 0x62 JUMPI DUP1 PUSH4 0xC3CEF20A EQ PUSH2 0x93 JUMPI JUMPDEST PUSH1 0x0 DUP1 REVERT JUMPDEST PUSH2 0x60 PUSH1 0x4 DUP1 CALLDATASIZE SUB DUP2 ADD SWAP1 PUSH2 0x5B SWAP2 SWAP1 PUSH2 0x365 JUMP JUMPDEST PUSH2 0xC3 JUMP JUMPDEST STOP JUMPDEST PUSH2 0x7C PUSH1 0x4 DUP1 CALLDATASIZE SUB DUP2 ADD SWAP1 PUSH2 0x77 SWAP2 SWAP1 PUSH2 0x41C JUMP JUMPDEST PUSH2 0x1E0 JUMP JUMPDEST PUSH1 0x40 MLOAD PUSH2 0x8A SWAP3 SWAP2 SWAP1 PUSH2 0x51B JUMP JUMPDEST PUSH1 0x40 MLOAD DUP1 SWAP2 SUB SWAP1 RETURN JUMPDEST PUSH2 0xAD PUSH1 0x4 DUP1 CALLDATASIZE SUB DUP2 ADD SWAP1 PUSH2 0xA8 SWAP2 SWAP1 PUSH2 0x54B JUMP JUMPDEST PUSH2 0x2C9 JUMP JUMPDEST PUSH1 0x40 MLOAD PUSH2 0xBA SWAP2 SWAP1 PUSH2 0x598 JUMP JUMPDEST PUSH1 0x40 MLOAD DUP1 SWAP2 SUB SWAP1 RETURN JUMPDEST PUSH1 0x0 DUP5 DUP5 PUSH1 0x40 MLOAD PUSH2 0xD5 SWAP3 SWAP2 SWAP1 PUSH2 0x5F2 JUMP JUMPDEST SWAP1 DUP2 MSTORE PUSH1 0x20 ADD PUSH1 0x40 MLOAD DUP1 SWAP2 SUB SWAP1 KECCAK256 PUSH1 0x40 MLOAD DUP1 PUSH1 0x40 ADD PUSH1 0x40 MSTORE DUP1 DUP5 DUP5 DUP1 DUP1 PUSH1 0x1F ADD PUSH1 0x20 DUP1 SWAP2 DIV MUL PUSH1 0x20 ADD PUSH1 0x40 MLOAD SWAP1 DUP2 ADD PUSH1 0x40 MSTORE DUP1 SWAP4 SWAP3 SWAP2 SWAP1 DUP2 DUP2 MSTORE PUSH1 0x20 ADD DUP4 DUP4 DUP1 DUP3 DUP5 CALLDATACOPY PUSH1 0x0 DUP2 DUP5 ADD MSTORE PUSH1 0x1F NOT PUSH1 0x1F DUP3 ADD AND SWAP1 POP DUP1 DUP4 ADD SWAP3 POP POP POP POP POP POP POP DUP2 MSTORE PUSH1 0x20 ADD TIMESTAMP DUP2 MSTORE POP SWAP1 DUP1 PUSH1 0x1 DUP2 SLOAD ADD DUP1 DUP3 SSTORE DUP1 SWAP2 POP POP PUSH1 0x1 SWAP1 SUB SWAP1 PUSH1 0x0 MSTORE PUSH1 0x20 PUSH1 0x0 KECCAK256 SWAP1 PUSH1 0x2 MUL ADD PUSH1 0x0 SWAP1 SWAP2 SWAP1 SWAP2 SWAP1 SWAP2 POP PUSH1 0x0 DUP3 ADD MLOAD DUP2 PUSH1 0x0 ADD SWAP1 DUP2 PUSH2 0x17A SWAP2 SWAP1 PUSH2 0x846 JUMP JUMPDEST POP PUSH1 0x20 DUP3 ADD MLOAD DUP2 PUSH1 0x1 ADD SSTORE POP POP DUP4 DUP4 PUSH1 0x40 MLOAD PUSH2 0x197 SWAP3 SWAP2 SWAP1 PUSH2 0x5F2 JUMP JUMPDEST PUSH1 0x40 MLOAD DUP1 SWAP2 SUB SWAP1 KECCAK256 PUSH32 0x9F7F225CCA3906D421320860B5AFBC9F44915713BF22CFA5A265D01E195B61A1 DUP4 DUP4 TIMESTAMP PUSH1 0x40 MLOAD PUSH2 0x1D2 SWAP4 SWAP3 SWAP2 SWAP1 PUSH2 0x945 JUMP JUMPDEST PUSH1 0x40 MLOAD DUP1 SWAP2 SUB SWAP1 LOG2 POP POP POP POP JUMP JUMPDEST PUSH1 0x60 PUSH1 0x0 DUP1 PUSH1 0x0 DUP7 DUP7 PUSH1 0x40 MLOAD PUSH2 0x1F7 SWAP3 SWAP2 SWAP1 PUSH2 0x5F2 JUMP JUMPDEST SWAP1 DUP2 MSTORE PUSH1 0x20 ADD PUSH1 0x40 MLOAD DUP1 SWAP2 SUB SWAP1 KECCAK256 DUP5 DUP2 SLOAD DUP2 LT PUSH2 0x217 JUMPI PUSH2 0x216 PUSH2 0x977 JUMP JUMPDEST JUMPDEST SWAP1 PUSH1 0x0 MSTORE PUSH1 0x20 PUSH1 0x0 KECCAK256 SWAP1 PUSH1 0x2 MUL ADD SWAP1 POP DUP1 PUSH1 0x0 ADD DUP2 PUSH1 0x1 ADD SLOAD DUP2 DUP1 SLOAD PUSH2 0x23C SWAP1 PUSH2 0x669 JUMP JUMPDEST DUP1 PUSH1 0x1F ADD PUSH1 0x20 DUP1 SWAP2 DIV MUL PUSH1 0x20 ADD PUSH1 0x40 MLOAD SWAP1 DUP2 ADD PUSH1 0x40 MSTORE DUP1 SWAP3 SWAP2 SWAP1 DUP2 DUP2 MSTORE PUSH1 0x20 ADD DUP3 DUP1 SLOAD PUSH2 0x268 SWAP1 PUSH2 0x669 JUMP JUMPDEST DUP1 ISZERO PUSH2 0x2B5 JUMPI DUP1 PUSH1 0x1F LT PUSH2 0x28A JUMPI PUSH2 0x100 DUP1 DUP4 SLOAD DIV MUL DUP4 MSTORE SWAP2 PUSH1 0x20 ADD SWAP2 PUSH2 0x2B5 JUMP JUMPDEST DUP3 ADD SWAP2 SWAP1 PUSH1 0x0 MSTORE PUSH1 0x20 PUSH1 0x0 KECCAK256 SWAP1 JUMPDEST DUP2 SLOAD DUP2 MSTORE SWAP1 PUSH1 0x1 ADD SWAP1 PUSH1 0x20 ADD DUP1 DUP4 GT PUSH2 0x298 JUMPI DUP3 SWAP1 SUB PUSH1 0x1F AND DUP3 ADD SWAP2 JUMPDEST POP POP POP POP POP SWAP2 POP SWAP3 POP SWAP3 POP POP SWAP4 POP SWAP4 SWAP2 POP POP JUMP JUMPDEST PUSH1 0x0 DUP1 DUP4 DUP4 PUSH1 0x40 MLOAD PUSH2 0x2DC SWAP3 SWAP2 SWAP1 PUSH2 0x5F2 JUMP JUMPDEST SWAP1 DUP2 MSTORE PUSH1 0x20 ADD PUSH1 0x40 MLOAD DUP1 SWAP2 SUB SWAP1 KECCAK256 DUP1 SLOAD SWAP1 POP SWAP1 POP SWAP3 SWAP2 POP POP JUMP JUMPDEST PUSH1 0x0 DUP1 REVERT JUMPDEST PUSH1 0x0 DUP1 REVERT JUMPDEST PUSH1 0x0 DUP1 REVERT JUMPDEST PUSH1 0x0 DUP1 REVERT JUMPDEST PUSH1 0x0 DUP1 REVERT JUMPDEST PUSH1 0x0 DUP1 DUP4 PUSH1 0x1F DUP5 ADD SLT PUSH2 0x325 JUMPI PUSH2 0x324 PUSH2 0x300 JUMP JUMPDEST JUMPDEST DUP3 CALLDATALOAD SWAP1 POP PUSH8 0xFFFFFFFFFFFFFFFF DUP2 GT ISZERO PUSH2 0x342 JUMPI PUSH2 0x341 PUSH2 0x305 JUMP JUMPDEST JUMPDEST PUSH1 0x20 DUP4 ADD SWAP2 POP DUP4 PUSH1 0x1 DUP3 MUL DUP4 ADD GT ISZERO PUSH2 0x35E JUMPI PUSH2 0x35D PUSH2 0x30A JUMP JUMPDEST JUMPDEST SWAP3 POP SWAP3 SWAP1 POP JUMP JUMPDEST PUSH1 0x0 DUP1 PUSH1 0x0 DUP1 PUSH1 0x40 DUP6 DUP8 SUB SLT ISZERO PUSH2 0x37F JUMPI PUSH2 0x37E PUSH2 0x2F6 JUMP JUMPDEST JUMPDEST PUSH1 0x0 DUP6 ADD CALLDATALOAD PUSH8 0xFFFFFFFFFFFFFFFF DUP2 GT ISZERO PUSH2 0x39D JUMPI PUSH2 0x39C PUSH2 0x2FB JUMP JUMPDEST JUMPDEST PUSH2 0x3A9 DUP8 DUP3 DUP9 ADD PUSH2 0x30F JUMP JUMPDEST SWAP5 POP SWAP5 POP POP PUSH1 0x20 DUP6 ADD CALLDATALOAD PUSH8 0xFFFFFFFFFFFFFFFF DUP2 GT ISZERO PUSH2 0x3CC JUMPI PUSH2 0x3CB PUSH2 0x2FB JUMP JUMPDEST JUMPDEST PUSH2 0x3D8 DUP8 DUP3 DUP9 ADD PUSH2 0x30F JUMP JUMPDEST SWAP3 POP SWAP3 POP POP SWAP3 SWAP6 SWAP2 SWAP5 POP SWAP3 POP JUMP JUMPDEST PUSH1 0x0 DUP2 SWAP1 POP SWAP2 SWAP1 POP JUMP JUMPDEST PUSH2 0x3F9 DUP2 PUSH2 0x3E6 JUMP JUMPDEST DUP2 EQ PUSH2 0x404 JUMPI PUSH1 0x0 DUP1 REVERT JUMPDEST POP JUMP JUMPDEST PUSH1 0x0 DUP2 CALLDATALOAD SWAP1 POP PUSH2 0x416 DUP2 PUSH2 0x3F0 JUMP JUMPDEST SWAP3 SWAP2 POP POP JUMP JUMPDEST PUSH1 0x0 DUP1 PUSH1 0x0 PUSH1 0x40 DUP5 DUP7 SUB SLT ISZERO PUSH2 0x435 JUMPI PUSH2 0x434 PUSH2 0x2F6 JUMP JUMPDEST JUMPDEST PUSH1 0x0 DUP5 ADD CALLDATALOAD PUSH8 0xFFFFFFFFFFFFFFFF DUP2 GT ISZERO PUSH2 0x453 JUMPI PUSH2 0x452 PUSH2 0x2FB JUMP JUMPDEST JUMPDEST PUSH2 0x45F DUP7 DUP3 DUP8 ADD PUSH2 0x30F JUMP JUMPDEST SWAP4 POP SWAP4 POP POP PUSH1 0x20 PUSH2 0x472 DUP7 DUP3 DUP8 ADD PUSH2 0x407 JUMP JUMPDEST SWAP2 POP POP SWAP3 POP SWAP3 POP SWAP3 JUMP JUMPDEST PUSH1 0x0 DUP2 MLOAD SWAP1 POP SWAP2 SWAP1 POP JUMP JUMPDEST PUSH1 0x0 DUP3 DUP3 MSTORE PUSH1 0x20 DUP3 ADD SWAP1 POP SWAP3 SWAP2 POP POP JUMP JUMPDEST PUSH1 0x0 JUMPDEST DUP4 DUP2 LT ISZERO PUSH2 0x4B6 JUMPI DUP1 DUP3 ADD MLOAD DUP2 DUP5 ADD MSTORE PUSH1 0x20 DUP2 ADD SWAP1 POP PUSH2 0x49B JUMP JUMPDEST PUSH1 0x0 DUP5 DUP5 ADD MSTORE POP POP POP POP JUMP JUMPDEST PUSH1 0x0 PUSH1 0x1F NOT PUSH1 0x1F DUP4 ADD AND SWAP1 POP SWAP2 SWAP1 POP JUMP JUMPDEST PUSH1 0x0 PUSH2 0x4DE DUP3 PUSH2 0x47C JUMP JUMPDEST PUSH2 0x4E8 DUP2 DUP6 PUSH2 0x487 JUMP JUMPDEST SWAP4 POP PUSH2 0x4F8 DUP2 DUP6 PUSH1 0x20 DUP7 ADD PUSH2 0x498 JUMP JUMPDEST PUSH2 0x501 DUP2 PUSH2 0x4C2 JUMP JUMPDEST DUP5 ADD SWAP2 POP POP SWAP3 SWAP2 POP POP JUMP JUMPDEST PUSH2 0x515 DUP2 PUSH2 0x3E6 JUMP JUMPDEST DUP3 MSTORE POP POP JUMP JUMPDEST PUSH1 0x0 PUSH1 0x40 DUP3 ADD SWAP1 POP DUP2 DUP2 SUB PUSH1 0x0 DUP4 ADD MSTORE PUSH2 0x535 DUP2 DUP6 PUSH2 0x4D3 JUMP JUMPDEST SWAP1 POP PUSH2 0x544 PUSH1 0x20 DUP4 ADD DUP5 PUSH2 0x50C JUMP JUMPDEST SWAP4 SWAP3 POP POP POP JUMP JUMPDEST PUSH1 0x0 DUP1 PUSH1 0x20 DUP4 DUP6 SUB SLT ISZERO PUSH2 0x562 JUMPI PUSH2 0x561 PUSH2 0x2F6 JUMP JUMPDEST JUMPDEST PUSH1 0x0 DUP4 ADD CALLDATALOAD PUSH8 0xFFFFFFFFFFFFFFFF DUP2 GT ISZERO PUSH2 0x580 JUMPI PUSH2 0x57F PUSH2 0x2FB JUMP JUMPDEST JUMPDEST PUSH2 0x58C DUP6 DUP3 DUP7 ADD PUSH2 0x30F JUMP JUMPDEST SWAP3 POP SWAP3 POP POP SWAP3 POP SWAP3 SWAP1 POP JUMP JUMPDEST PUSH1 0x0 PUSH1 0x20 DUP3 ADD SWAP1 POP PUSH2 0x5AD PUSH1 0x0 DUP4 ADD DUP5 PUSH2 0x50C JUMP JUMPDEST SWAP3 SWAP2 POP POP JUMP JUMPDEST PUSH1 0x0 DUP2 SWAP1 POP SWAP3 SWAP2 POP POP JUMP JUMPDEST DUP3 DUP2 DUP4 CALLDATACOPY PUSH1 0x0 DUP4 DUP4 ADD MSTORE POP POP POP JUMP JUMPDEST PUSH1 0x0 PUSH2 0x5D9 DUP4 DUP6 PUSH2 0x5B3 JUMP JUMPDEST SWAP4 POP PUSH2 0x5E6 DUP4 DUP6 DUP5 PUSH2 0x5BE JUMP JUMPDEST DUP3 DUP5 ADD SWAP1 POP SWAP4 SWAP3 POP POP POP JUMP JUMPDEST PUSH1 0x0 PUSH2 0x5FF DUP3 DUP5 DUP7 PUSH2 0x5CD JUMP JUMPDEST SWAP2 POP DUP2 SWAP1 POP SWAP4 SWAP3 POP POP POP JUMP JUMPDEST PUSH32 0x4E487B7100000000000000000000000000000000000000000000000000000000 PUSH1 0x0 MSTORE PUSH1 0x41 PUSH1 0x4 MSTORE PUSH1 0x24 PUSH1 0x0 REVERT JUMPDEST PUSH32 0x4E487B7100000000000000000000000000000000000000000000000000000000 PUSH1 0x0 MSTORE PUSH1 0x22 PUSH1 0x4 MSTORE PUSH1 0x24 PUSH1 0x0 REVERT JUMPDEST PUSH1 0x0 PUSH1 0x2 DUP3 DIV SWAP1 POP PUSH1 0x1 DUP3 AND DUP1 PUSH2 0x681 JUMPI PUSH1 0x7F DUP3 AND SWAP2 POP JUMPDEST PUSH1 0x20 DUP3 LT DUP2 SUB PUSH2 0x694 JUMPI PUSH2 0x693 PUSH2 0x63A JUMP JUMPDEST JUMPDEST POP SWAP2 SWAP1 POP JUMP JUMPDEST PUSH1 0x0 DUP2 SWAP1 POP DUP2 PUSH1 0x0 MSTORE PUSH1 0x20 PUSH1 0x0 KECCAK256 SWAP1 POP SWAP2 SWAP1 POP JUMP JUMPDEST PUSH1 0x0 PUSH1 0x20 PUSH1 0x1F DUP4 ADD DIV SWAP1 POP SWAP2 SWAP1 POP JUMP JUMPDEST PUSH1 0x0 DUP3 DUP3 SHL SWAP1 POP SWAP3 SWAP2 POP POP JUMP JUMPDEST PUSH1 0x0 PUSH1 0x8 DUP4 MUL PUSH2 0x6FC PUSH32 0xFFFFFFFFFFFFFFFFFFFFFFFFFFFFFFFFFFFFFFFFFFFFFFFFFFFFFFFFFFFFFFFF DUP3 PUSH2 0x6BF JUMP JUMPDEST PUSH2 0x706 DUP7 DUP4 PUSH2 0x6BF JUMP JUMPDEST SWAP6 POP DUP1 NOT DUP5 AND SWAP4 POP DUP1 DUP7 AND DUP5 OR SWAP3 POP POP POP SWAP4 SWAP3 POP POP POP JUMP JUMPDEST PUSH1 0x0 DUP2 SWAP1 POP SWAP2 SWAP1 POP JUMP JUMPDEST PUSH1 0x0 PUSH2 0x743 PUSH2 0x73E PUSH2 0x739 DUP5 PUSH2 0x3E6 JUMP JUMPDEST PUSH2 0x71E JUMP JUMPDEST PUSH2 0x3E6 JUMP JUMPDEST SWAP1 POP SWAP2 SWAP1 POP JUMP JUMPDEST PUSH1 0x0 DUP2 SWAP1 POP SWAP2 SWAP1 POP JUMP JUMPDEST PUSH2 0x75D DUP4 PUSH2 0x728 JUMP JUMPDEST PUSH2 0x771 PUSH2 0x769 DUP3 PUSH2 0x74A JUMP JUMPDEST DUP5 DUP5 SLOAD PUSH2 0x6CC JUMP JUMPDEST DUP3 SSTORE POP POP POP POP JUMP JUMPDEST PUSH1 0x0 SWAP1 JUMP JUMPDEST PUSH2 0x786 PUSH2 0x779 JUMP JUMPDEST PUSH2 0x791 DUP2 DUP5 DUP5 PUSH2 0x754 JUMP JUMPDEST POP POP POP JUMP JUMPDEST JUMPDEST DUP2 DUP2 LT ISZERO PUSH2 0x7B5 JUMPI PUSH2 0x7AA PUSH1 0x0 DUP3 PUSH2 0x77E JUMP JUMPDEST PUSH1 0x1 DUP2 ADD SWAP1 POP PUSH2 0x797 JUMP JUMPDEST POP POP JUMP JUMPDEST PUSH1 0x1F DUP3 GT ISZERO PUSH2 0x7FA JUMPI PUSH2 0x7CB DUP2 PUSH2 0x69A JUMP JUMPDEST PUSH2 0x7D4 DUP5 PUSH2 0x6AF JUMP JUMPDEST DUP2 ADD PUSH1 0x20 DUP6 LT ISZERO PUSH2 0x7E3 JUMPI DUP2 SWAP1 POP JUMPDEST PUSH2 0x7F7 PUSH2 0x7EF DUP6 PUSH2 0x6AF JUMP JUMPDEST DUP4 ADD DUP3 PUSH2 0x796 JUMP JUMPDEST POP POP JUMPDEST POP POP POP JUMP JUMPDEST PUSH1 0x0 DUP3 DUP3 SHR SWAP1 POP SWAP3 SWAP2 POP POP JUMP JUMPDEST PUSH1 0x0 PUSH2 0x81D PUSH1 0x0 NOT DUP5 PUSH1 0x8 MUL PUSH2 0x7FF JUMP JUMPDEST NOT DUP1 DUP4 AND SWAP2 POP POP SWAP3 SWAP2 POP POP JUMP JUMPDEST PUSH1 0x0 PUSH2 0x836 DUP4 DUP4 PUSH2 0x80C JUMP JUMPDEST SWAP2 POP DUP3 PUSH1 0x2 MUL DUP3 OR SWAP1 POP SWAP3 SWAP2 POP POP JUMP JUMPDEST PUSH2 0x84F DUP3 PUSH2 0x47C JUMP JUMPDEST PUSH8 0xFFFFFFFFFFFFFFFF DUP2 GT ISZERO PUSH2 0x868 JUMPI PUSH2 0x867 PUSH2 0x60B JUMP JUMPDEST JUMPDEST PUSH2 0x872 DUP3 SLOAD PUSH2 0x669 JUMP JUMPDEST PUSH2 0x87D DUP3 DUP3 DUP6 PUSH2 0x7B9 JUMP JUMPDEST PUSH1 0x0 PUSH1 0x20 SWAP1 POP PUSH1 0x1F DUP4 GT PUSH1 0x1 DUP2 EQ PUSH2 0x8B0 JUMPI PUSH1 0x0 DUP5 ISZERO PUSH2 0x89E JUMPI DUP3 DUP8 ADD MLOAD SWAP1 POP JUMPDEST PUSH2 0x8A8 DUP6 DUP3 PUSH2 0x82A JUMP JUMPDEST DUP7 SSTORE POP PUSH2 0x910 JUMP JUMPDEST PUSH1 0x1F NOT DUP5 AND PUSH2 0x8BE DUP7 PUSH2 0x69A JUMP JUMPDEST PUSH1 0x0 JUMPDEST DUP3 DUP2 LT ISZERO PUSH2 0x8E6 JUMPI DUP5 DUP10 ADD MLOAD DUP3 SSTORE PUSH1 0x1 DUP3 ADD SWAP2 POP PUSH1 0x20 DUP6 ADD SWAP5 POP PUSH1 0x20 DUP2 ADD SWAP1 POP PUSH2 0x8C1 JUMP JUMPDEST DUP7 DUP4 LT ISZERO PUSH2 0x903 JUMPI DUP5 DUP10 ADD MLOAD PUSH2 0x8FF PUSH1 0x1F DUP10 AND DUP3 PUSH2 0x80C JUMP JUMPDEST DUP4 SSTORE POP JUMPDEST PUSH1 0x1 PUSH1 0x2 DUP9 MUL ADD DUP9 SSTORE POP POP POP JUMPDEST POP POP POP POP POP POP JUMP JUMPDEST PUSH1 0x0 PUSH2 0x924 DUP4 DUP6 PUSH2 0x487 JUMP JUMPDEST SWAP4 POP PUSH2 0x931 DUP4 DUP6 DUP5 PUSH2 0x5BE JUMP JUMPDEST PUSH2 0x93A DUP4 PUSH2 0x4C2 JUMP JUMPDEST DUP5 ADD SWAP1 POP SWAP4 SWAP3 POP POP POP JUMP JUMPDEST PUSH1 0x0 PUSH1 0x40 DUP3 ADD SWAP1 POP DUP2 DUP2 SUB PUSH1 0x0 DUP4 ADD MSTORE PUSH2 0x960 DUP2 DUP6 DUP8 PUSH2 0x918 JUMP JUMPDEST SWAP1 POP PUSH2 0x96F PUSH1 0x20 DUP4 ADD DUP5 PUSH2 0x50C JUMP JUMPDEST SWAP5 SWAP4 POP POP POP POP JUMP JUMPDEST PUSH32 0x4E487B7100000000000000000000000000000000000000000000000000000000 PUSH1 0x0 MSTORE PUSH1 0x32 PUSH1 0x4 MSTORE PUSH1 0x24 PUSH1 0x0 REVERT INVALID LOG2 PUSH5 0x6970667358 0x22 SLT KECCAK256 DELEGATECALL 0xCD CALLCODE 0x2F DUP12 PUSH4 0x6EFAFE52 0xDA BLOBHASH 0xBF MCOPY 0x23 TLOAD 0xD8 0xCA 0xD0 SELFDESTRUCT 0xFC REVERT 0xA8 CALLVALUE DIV 0xD2 0xB9 0xDC 0xAF 0xCF 0xB6 PUSH27 0x64736F6C634300081C003300000000000000000000000000000000 "},"methodIdentifiers":{"getRecord(string,uint256)":"bc60f6a1","getRecordCount(string)":"c3cef20a","storeRecord(string,string)":"6386953f"}}}}}