{
    "_format": "hh-sol-artifact-1",
    "contractName": "PatientRecords",
    "sourceName": "contracts/PatientRecords.sol",
    "abi": [
        {
            "anonymous": false,
            "inputs": [
                {
                    "indexed": true,
                    "internalType": "string",
                    "name": "patientId",
                    "type": "string"
                },
                {
                    "indexed": false,
                    "internalType": "string",
                    "name": "pointer",
                    "type": "string"
                },
                {
                    "indexed": false,
                    "internalType": "uint256",
                    "name": "timestamp",
                    "type": "uint256"
                }
            ],
            "name": "RecordStored",
            "type": "event"
        },
        {
            "inputs": [
                {
                    "internalType": "string",
                    "name": "patientId",
                    "type": "string"
                },
                {
                    "internalType": "uint256",
                    "name": "index",
                    "type": "uint256"
                }
            ],
            "name": "getRecord",
            "outputs": [
                {
                    "internalType": "string",
                    "name": "pointer",
                    "type": "string"
                },
                {
                    "internalType": "uint256",
                    "name": "ts",
                    "type": "uint256"
                }
            ],
            "stateMutability": "view",
            "type": "function"
        },
        {
            "inputs": [
                {
                    "internalType": "string",
                    "name": "patientId",
                    "type": "string"
                }
            ],
            "name": "getRecordCount",
            "outputs": [
                {
                    "internalType": "uint256",
                    "name": "",
                    "type": "uint256"
                }
            ],
            "stateMutability": "view",
            "type": "function"
        },
        {
            "inputs": [
                {
                    "internalType": "string",
                    "name": "patientId",
                    "type": "string"
                },
                {
                    "internalType": "string",
                    "name": "pointer",
                    "type": "string"
                }
            ],
            "name": "storeRecord",
            "outputs": [],
            "stateMutability": "nonpayable",
            "type": "function"
        }
    ],
    "bytecode": "0x6080604052348015600f57600080fd5b506109dc8061001f6000396000f3fe608060405234801561001057600080fd5b50600436106100415760003560e01c80636386953f14610046578063bc60f6a114610062578063c3cef20a14610093575b600080fd5b610060600480360381019061005b9190610365565b6100c3565b005b61007c6004803603810190610077919061041c565b6101e0565b60405161008a92919061051b565b60405180910390f35b6100ad60048036038101906100a8919061054b565b6102c9565b6040516100ba9190610598565b60405180910390f35b600084846040516100d59291906105f2565b9081526020016040518091039020604051806040016040528084848080601f016020809104026020016040519081016040528093929190818152602001838380828437600081840152601f19601f820116905080830192505050505050508152602001428152509080600181540180825580915050600190039060005260206000209060020201600090919091909150600082015181600001908161017a9190610846565b5060208201518160010155505083836040516101979291906105f2565b60405180910390207f9f7f225cca3906d421320860b5afbc9f44915713bf22cfa5a265d01e195b61a18383426040516101d293929190610945565b60405180910390a250505050565b6060600080600086866040516101f79291906105f2565b9081526020016040518091039020848154811061021757610216610977565b5b9060005260206000209060020201905080600001816001015481805461023c90610669565b80601f016020809104026020016040519081016040528092919081815260200182805461026890610669565b80156102b55780601f1061028a576101008083540402835291602001916102b5565b820191906000526020600020905b81548152906001019060200180831161029857829003601f168201915b505050505091509250925050935093915050565b60008083836040516102dc9291906105f2565b908152602001604051809103902080549050905092915050565b600080fd5b600080fd5b600080fd5b600080fd5b600080fd5b60008083601f84011261032557610324610300565b5b8235905067ffffffffffffffff81111561034257610341610305565b5b60208301915083600182028301111561035e5761035d61030a565b5b9250929050565b6000806000806040858703121561037f5761037e6102f6565b5b600085013567ffffffffffffffff81111561039d5761039c6102fb565b5b6103a98782880161030f565b9450945050602085013567ffffffffffffffff8111156103cc576103cb6102fb565b5b6103d88782880161030f565b925092505092959194509250565b6000819050919050565b6103f9816103e6565b811461040457600080fd5b50565b600081359050610416816103f0565b92915050565b600080600060408486031215610435576104346102f6565b5b600084013567ffffffffffffffff811115610453576104526102fb565b5b61045f8682870161030f565b9350935050602061047286828701610407565b9150509250925092565b600081519050919050565b600082825260208201905092915050565b60005b838110156104b657808201518184015260208101905061049b565b60008484015250505050565b6000601f19601f8301169050919050565b60006104de8261047c565b6104e88185610487565b93506104f8818560208601610498565b610501816104c2565b840191505092915050565b610515816103e6565b82525050565b6000604082019050818103600083015261053581856104d3565b9050610544602083018461050c565b9392505050565b60008060208385031215610562576105616102f6565b5b600083013567ffffffffffffffff8111156105805761057f6102fb565b5b61058c8582860161030f565b92509250509250929050565b60006020820190506105ad600083018461050c565b92915050565b600081905092915050565b82818337600083830152505050565b60006105d983856105b3565b93506105e68385846105be565b82840190509392505050565b60006105ff8284866105cd565b91508190509392505050565b7f4e487b7100000000000000000000000000000000000000000000000000000000600052604160045260246000fd5b7f4e487b7100000000000000000000000000000000000000000000000000000000600052602260045260246000fd5b6000600282049050600182168061068157607f821691505b6020821081036106945761069361063a565b5b50919050565b60008190508160005260206000209050919050565b60006020601f8301049050919050565b600082821b905092915050565b6000600883026106fc7fffffffffffffffffffffffffffffffffffffffffffffffffffffffffffffffff826106bf565b61070686836106bf565b95508019841693508086168417925050509392505050565b6000819050919050565b600061074361073e610739846103e6565b61071e565b6103e6565b9050919050565b6000819050919050565b61075d83610728565b6107716107698261074a565b8484546106cc565b825550505050565b600090565b610786610779565b610791818484610754565b505050565b5b818110156107b5576107aa60008261077e565b600181019050610797565b5050565b601f8211156107fa576107cb8161069a565b6107d4846106af565b810160208510156107e3578190505b6107f76107ef856106af565b830182610796565b50505b505050565b600082821c905092915050565b600061081d600019846008026107ff565b1980831691505092915050565b6000610836838361080c565b9150826002028217905092915050565b61084f8261047c565b67ffffffffffffffff8111156108685761086761060b565b5b6108728254610669565b61087d8282856107b9565b600060209050601f8311600181146108b0576000841561089e578287015190505b6108a8858261082a565b865550610910565b601f1984166108be8661069a565b60005b828110156108e6578489015182556001820191506020850194506020810190506108c1565b8683101561090357848901516108ff601f89168261080c565b8355505b6001600288020188555050505b505050505050565b60006109248385610487565b93506109318385846105be565b61093a836104c2565b840190509392505050565b60006040820190508181036000830152610960818587610918565b905061096f602083018461050c565b949350505050565b7f4e487b7100000000000000000000000000000000000000000000000000000000600052603260045260246000fdfea2646970667358221220f4cdf22f8b636efafe52da49bf5e235cd8cad0fffcfda83404d2b9dcafcfb67a64736f6c634300081c0033",
    "linkReferences": {},
    "deployedLinkReferences": {}
}